{
  "_format": "hh-sol-artifact-1",
  "contractName": "TaskContract",
  "sourceName": "contracts/Todo.sol",
  "abi": [
    {
      "anonymous": false,
      "inputs": [
        {
          "indexed": true,
          "internalType": "address",
          "name": "recipient",
          "type": "address"
        },
        {
          "indexed": true,
          "internalType": "uint256",
          "name": "taskId",
          "type": "uint256"
        }
      ],
      "name": "AddTask",
      "type": "event"
    },
    {
      "anonymous": false,
      "inputs": [
        {
          "indexed": true,
          "internalType": "uint256",
          "name": "taskId",
          "type": "uint256"
        },
        {
          "indexed": true,
          "internalType": "bool",
          "name": "isDeleted",
          "type": "bool"
        }
      ],
      "name": "DeleteTask",
      "type": "event"
    },
    {
      "inputs": [
        {
          "internalType": "string",
          "name": "_taskText",
          "type": "string"
        },
        {
          "internalType": "bool",
          "name": "_isDeleted",
          "type": "bool"
        }
      ],
      "name": "addTask",
      "outputs": [],
      "stateMutability": "nonpayable",
      "type": "function"
    },
    {
      "inputs": [
        {
          "internalType": "uint256",
          "name": "_taskId",
          "type": "uint256"
        },
        {
          "internalType": "bool",
          "name": "_isDeleted",
          "type": "bool"
        }
      ],
      "name": "deleteTask",
      "outputs": [],
      "stateMutability": "nonpayable",
      "type": "function"
    },
    {
      "inputs": [],
      "name": "getMyTasks",
      "outputs": [
        {
          "components": [
            {
              "internalType": "uint256",
              "name": "id",
              "type": "uint256"
            },
            {
              "internalType": "string",
              "name": "taskText",
              "type": "string"
            },
            {
              "internalType": "bool",
              "name": "isDeleted",
              "type": "bool"
            }
          ],
          "internalType": "struct TaskContract.Task[]",
          "name": "",
          "type": "tuple[]"
        }
      ],
      "stateMutability": "view",
      "type": "function"
    }
  ],
  "bytecode": "0x608060405234801561001057600080fd5b50610dab806100206000396000f3fe608060405234801561001057600080fd5b50600436106100415760003560e01c806320df4581146100465780636e13f81814610062578063aaba290714610080575b600080fd5b610060600480360381019061005b9190610745565b61009c565b005b61006a6101ca565b6040516100779190610963565b60405180910390f35b61009a600480360381019061009591906109b1565b6104b8565b005b60008080549050905060006040518060600160405280838152602001858152602001841515815250908060018154018082558091505060019003906000526020600020906003020160009091909190915060008201518160000155602082015181600101908161010c9190610bfd565b5060408201518160020160006101000a81548160ff0219169083151502179055505050336001600083815260200190815260200160002060006101000a81548173ffffffffffffffffffffffffffffffffffffffff021916908373ffffffffffffffffffffffffffffffffffffffff160217905550803373ffffffffffffffffffffffffffffffffffffffff167f1f54e1ba1832d428fbd7e7792beaf62b1fc5a382c207ffd614209c1413e94fda60405160405180910390a3505050565b60606000808054905067ffffffffffffffff8111156101ec576101eb6105e2565b5b60405190808252806020026020018201604052801561022557816020015b610212610590565b81526020019060019003908161020a5790505b5090506000805b6000805490508110156103fe573373ffffffffffffffffffffffffffffffffffffffff166001600083815260200190815260200160002060009054906101000a900473ffffffffffffffffffffffffffffffffffffffff1673ffffffffffffffffffffffffffffffffffffffff161480156102d75750600081815481106102b6576102b5610ccf565b5b906000526020600020906003020160020160009054906101000a900460ff16155b156103eb57600081815481106102f0576102ef610ccf565b5b90600052602060002090600302016040518060600160405290816000820154815260200160018201805461032390610a20565b80601f016020809104026020016040519081016040528092919081815260200182805461034f90610a20565b801561039c5780601f106103715761010080835404028352916020019161039c565b820191906000526020600020905b81548152906001019060200180831161037f57829003601f168201915b505050505081526020016002820160009054906101000a900460ff1615151515815250508383806103cc90610d2d565b9450815181106103df576103de610ccf565b5b60200260200101819052505b80806103f690610d2d565b91505061022c565b5060008167ffffffffffffffff81111561041b5761041a6105e2565b5b60405190808252806020026020018201604052801561045457816020015b610441610590565b8152602001906001900390816104395790505b50905060005b828110156104ae5783818151811061047557610474610ccf565b5b60200260200101518282815181106104905761048f610ccf565b5b602002602001018190525080806104a690610d2d565b91505061045a565b5080935050505090565b3373ffffffffffffffffffffffffffffffffffffffff166001600084815260200190815260200160002060009054906101000a900473ffffffffffffffffffffffffffffffffffffffff1673ffffffffffffffffffffffffffffffffffffffff160361058c57806000838154811061053357610532610ccf565b5b906000526020600020906003020160020160006101000a81548160ff021916908315150217905550801515827ff88a35c3d2016c409a46570b994a17b408dbc83c14a03f521512d50b85386d0660405160405180910390a35b5050565b604051806060016040528060008152602001606081526020016000151581525090565b6000604051905090565b600080fd5b600080fd5b600080fd5b600080fd5b6000601f19601f8301169050919050565b7f4e487b7100000000000000000000000000000000000000000000000000000000600052604160045260246000fd5b61061a826105d1565b810181811067ffffffffffffffff82111715610639576106386105e2565b5b80604052505050565b600061064c6105b3565b90506106588282610611565b919050565b600067ffffffffffffffff821115610678576106776105e2565b5b610681826105d1565b9050602081019050919050565b82818337600083830152505050565b60006106b06106ab8461065d565b610642565b9050828152602081018484840111156106cc576106cb6105cc565b5b6106d784828561068e565b509392505050565b600082601f8301126106f4576106f36105c7565b5b813561070484826020860161069d565b91505092915050565b60008115159050919050565b6107228161070d565b811461072d57600080fd5b50565b60008135905061073f81610719565b92915050565b6000806040838503121561075c5761075b6105bd565b5b600083013567ffffffffffffffff81111561077a576107796105c2565b5b610786858286016106df565b925050602061079785828601610730565b9150509250929050565b600081519050919050565b600082825260208201905092915050565b6000819050602082019050919050565b6000819050919050565b6107e0816107cd565b82525050565b600081519050919050565b600082825260208201905092915050565b60005b83811015610820578082015181840152602081019050610805565b8381111561082f576000848401525b50505050565b6000610840826107e6565b61084a81856107f1565b935061085a818560208601610802565b610863816105d1565b840191505092915050565b6108778161070d565b82525050565b600060608301600083015161089560008601826107d7565b50602083015184820360208601526108ad8282610835565b91505060408301516108c2604086018261086e565b508091505092915050565b60006108d9838361087d565b905092915050565b6000602082019050919050565b60006108f9826107a1565b61090381856107ac565b935083602082028501610915856107bd565b8060005b85811015610951578484038952815161093285826108cd565b945061093d836108e1565b925060208a01995050600181019050610919565b50829750879550505050505092915050565b6000602082019050818103600083015261097d81846108ee565b905092915050565b61098e816107cd565b811461099957600080fd5b50565b6000813590506109ab81610985565b92915050565b600080604083850312156109c8576109c76105bd565b5b60006109d68582860161099c565b92505060206109e785828601610730565b9150509250929050565b7f4e487b7100000000000000000000000000000000000000000000000000000000600052602260045260246000fd5b60006002820490506001821680610a3857607f821691505b602082108103610a4b57610a4a6109f1565b5b50919050565b60008190508160005260206000209050919050565b60006020601f8301049050919050565b600082821b905092915050565b600060088302610ab37fffffffffffffffffffffffffffffffffffffffffffffffffffffffffffffffff82610a76565b610abd8683610a76565b95508019841693508086168417925050509392505050565b6000819050919050565b6000610afa610af5610af0846107cd565b610ad5565b6107cd565b9050919050565b6000819050919050565b610b1483610adf565b610b28610b2082610b01565b848454610a83565b825550505050565b600090565b610b3d610b30565b610b48818484610b0b565b505050565b5b81811015610b6c57610b61600082610b35565b600181019050610b4e565b5050565b601f821115610bb157610b8281610a51565b610b8b84610a66565b81016020851015610b9a578190505b610bae610ba685610a66565b830182610b4d565b50505b505050565b600082821c905092915050565b6000610bd460001984600802610bb6565b1980831691505092915050565b6000610bed8383610bc3565b9150826002028217905092915050565b610c06826107e6565b67ffffffffffffffff811115610c1f57610c1e6105e2565b5b610c298254610a20565b610c34828285610b70565b600060209050601f831160018114610c675760008415610c55578287015190505b610c5f8582610be1565b865550610cc7565b601f198416610c7586610a51565b60005b82811015610c9d57848901518255600182019150602085019450602081019050610c78565b86831015610cba5784890151610cb6601f891682610bc3565b8355505b6001600288020188555050505b505050505050565b7f4e487b7100000000000000000000000000000000000000000000000000000000600052603260045260246000fd5b7f4e487b7100000000000000000000000000000000000000000000000000000000600052601160045260246000fd5b6000610d38826107cd565b91507fffffffffffffffffffffffffffffffffffffffffffffffffffffffffffffffff8203610d6a57610d69610cfe565b5b60018201905091905056fea2646970667358221220e383595de5e6c98cb1db9e907e90e3d8b6af20dbe7f2ae7433567b091d90237d64736f6c634300080f0033",
  "linkReferences": {},
  "deployedLinkReferences": {}
}